{
  "contractName": "AccessControl",
  "abi": [
    {
      "inputs": [],
      "payable": false,
      "stateMutability": "nonpayable",
      "type": "constructor"
    },
    {
      "anonymous": false,
      "inputs": [
        {
          "indexed": false,
          "name": "investor",
          "type": "address"
        },
        {
          "indexed": false,
          "name": "fund",
          "type": "uint256"
        }
      ],
      "name": "invest",
      "type": "event"
    },
    {
      "anonymous": false,
      "inputs": [
        {
          "indexed": false,
          "name": "contractAddress",
          "type": "address"
        },
        {
          "indexed": false,
          "name": "contractBalance",
          "type": "uint256"
        }
      ],
      "name": "depositEvent",
      "type": "event"
    },
    {
      "anonymous": false,
      "inputs": [
        {
          "indexed": false,
          "name": "borrower",
          "type": "address"
        },
        {
          "indexed": false,
          "name": "storedAddr",
          "type": "address"
        },
        {
          "indexed": false,
          "name": "index",
          "type": "uint256"
        }
      ],
      "name": "addBorrower",
      "type": "event"
    },
    {
      "anonymous": false,
      "inputs": [
        {
          "indexed": false,
          "name": "borrower",
          "type": "address"
        },
        {
          "indexed": false,
          "name": "fund",
          "type": "uint256"
        }
      ],
      "name": "borrowEvent",
      "type": "event"
    },
    {
      "constant": false,
      "inputs": [
        {
          "name": "username",
          "type": "string"
        }
      ],
      "name": "add_borrower",
      "outputs": [],
      "payable": false,
      "stateMutability": "nonpayable",
      "type": "function"
    },
    {
      "constant": true,
      "inputs": [],
      "name": "renderHelloWorld",
      "outputs": [
        {
          "name": "",
          "type": "string"
        }
      ],
      "payable": false,
      "stateMutability": "pure",
      "type": "function"
    },
    {
      "constant": false,
      "inputs": [],
      "name": "deposit",
      "outputs": [],
      "payable": true,
      "stateMutability": "payable",
      "type": "function"
    },
    {
      "constant": false,
      "inputs": [
        {
          "name": "amt",
          "type": "uint256"
        }
      ],
      "name": "accept_fund",
      "outputs": [],
      "payable": false,
      "stateMutability": "nonpayable",
      "type": "function"
    },
    {
      "constant": false,
      "inputs": [
        {
          "name": "borrowerAddress",
          "type": "address"
        },
        {
          "name": "amt",
          "type": "uint256"
        }
      ],
      "name": "borrow",
      "outputs": [],
      "payable": false,
      "stateMutability": "nonpayable",
      "type": "function"
    },
    {
      "constant": true,
      "inputs": [],
      "name": "getBalance",
      "outputs": [
        {
          "name": "amt",
          "type": "uint256"
        }
      ],
      "payable": false,
      "stateMutability": "view",
      "type": "function"
    }
  ],
  "bytecode": "0x608060405260006002556080604051908101604052806040805190810160405280601281526020017f4d696e696d756d206f66203520457468657200000000000000000000000000008152508152602001606060405190810160405280602a81526020017f496e73756666696369656e742066756e6420696e20636f6e747261637420666f81526020017f72207472616e73666572000000000000000000000000000000000000000000008152508152602001606060405190810160405280603581526020017f53686f756c64206e6f74206265206d6f7265207468616e20383025206f66207981526020017f6f757220617661696c61626c652062616c616e6365000000000000000000000081525081526020016040805190810160405280601e81526020017f4d696e696d756d204c6f616e20416d6f756e74206f662033204574686572000081525081525060049060046200015f929190620001b4565b503480156200016d57600080fd5b50336000806101000a81548173ffffffffffffffffffffffffffffffffffffffff021916908373ffffffffffffffffffffffffffffffffffffffff16021790555062000347565b82805482825590600052602060002090810192821562000208579160200282015b8281111562000207578251829080519060200190620001f69291906200021b565b5091602001919060010190620001d5565b5b509050620002179190620002a2565b5090565b828054600181600116156101000203166002900490600052602060002090601f016020900481019282601f106200025e57805160ff19168380011785556200028f565b828001600101855582156200028f579182015b828111156200028e57825182559160200191906001019062000271565b5b5090506200029e9190620002d3565b5090565b620002d091905b80821115620002cc5760008181620002c29190620002fb565b50600101620002a9565b5090565b90565b620002f891905b80821115620002f4576000816000905550600101620002da565b5090565b90565b50805460018160011615610100020316600290046000825580601f1062000323575062000344565b601f016020900490600052602060002090810190620003439190620002d3565b5b50565b610b8e80620003576000396000f3fe608060405260043610610072576000357c0100000000000000000000000000000000000000000000000000000000900480630831dc161461007757806312065fe0146100b25780634b8a3529146100dd578063942ae0a714610138578063a18eaa9a146101c8578063d0e30db014610290575b600080fd5b34801561008357600080fd5b506100b06004803603602081101561009a57600080fd5b810190808035906020019092919050505061029a565b005b3480156100be57600080fd5b506100c761048b565b6040518082815260200191505060405180910390f35b3480156100e957600080fd5b506101366004803603604081101561010057600080fd5b81019080803573ffffffffffffffffffffffffffffffffffffffff169060200190929190803590602001909291905050506104aa565b005b34801561014457600080fd5b5061014d610560565b6040518080602001828103825283818151815260200191508051906020019080838360005b8381101561018d578082015181840152602081019050610172565b50505050905090810190601f1680156101ba5780820380516001836020036101000a031916815260200191505b509250505060405180910390f35b3480156101d457600080fd5b5061028e600480360360208110156101eb57600080fd5b810190808035906020019064010000000081111561020857600080fd5b82018360208201111561021a57600080fd5b8035906020019184600183028401116401000000008311171561023c57600080fd5b91908080601f016020809104026020016040519081016040528093929190818152602001838380828437600081840152601f19601f82011690508083019250505050505050919291929050505061059d565b005b6102986108ba565b005b803073ffffffffffffffffffffffffffffffffffffffff163110600460018154811015156102c457fe5b90600052602060002001901515610393576040517f08c379a000000000000000000000000000000000000000000000000000000000815260040180806020018281038252838181546001816001161561010002031660029004815260200191508054600181600116156101000203166002900480156103845780601f1061035957610100808354040283529160200191610384565b820191906000526020600020905b81548152906001019060200180831161036757829003601f168201915b50509250505060405180910390fd5b506000809054906101000a900473ffffffffffffffffffffffffffffffffffffffff1673ffffffffffffffffffffffffffffffffffffffff166108fc829081150290604051600060405180830381858888f193505050501580156103fb573d6000803e3d6000fd5b507fb9b8c2461485ea1cc7d37d2326748846e4e65a93a395281a0a9c7427644499826000809054906101000a900473ffffffffffffffffffffffffffffffffffffffff1682604051808373ffffffffffffffffffffffffffffffffffffffff1673ffffffffffffffffffffffffffffffffffffffff1681526020018281526020019250505060405180910390a150565b60003073ffffffffffffffffffffffffffffffffffffffff1631905090565b7fceff913edf9c5daf140e6ecfaddfd63e1495464b8ff03c970af0fbc9386f49a88282604051808373ffffffffffffffffffffffffffffffffffffffff1673ffffffffffffffffffffffffffffffffffffffff1681526020018281526020019250505060405180910390a18173ffffffffffffffffffffffffffffffffffffffff166108fc829081150290604051600060405180830381858888f1935050505015801561055b573d6000803e3d6000fd5b505050565b60606040805190810160405280600b81526020017f48656c6c6f20576f726c64000000000000000000000000000000000000000000815250905090565b6000806003836040518082805190602001908083835b6020831015156105d857805182526020820191506020810190506020830392506105b3565b6001836020036101000a0380198251168184511680821785525050505050509050019150509081526020016040518091039020541115610685576003826040518082805190602001908083835b60208310151561064a5780518252602082019150602081019050602083039250610625565b6001836020036101000a03801982511681845116808217855250505050505090500191505090815260200160405180910390205490506107de565b6002546003836040518082805190602001908083835b6020831015156106c0578051825260208201915060208101905060208303925061069b565b6001836020036101000a0380198251168184511680821785525050505050509050019150509081526020016040518091039020819055506003826040518082805190602001908083835b60208310151561072f578051825260208201915060208101905060208303925061070a565b6001836020036101000a038019825116818451168082178552505050505050905001915050908152602001604051809103902054905060026000815480929190600101919050555060013390806001815401808255809150509060018203906000526020600020016000909192909190916101000a81548173ffffffffffffffffffffffffffffffffffffffff021916908373ffffffffffffffffffffffffffffffffffffffff160217905550505b7f027881f9db09732209b949331171dc5ad37cdf6daf717b4033b7de083409a8873360018381548110151561080f57fe5b9060005260206000200160009054906101000a900473ffffffffffffffffffffffffffffffffffffffff1683604051808473ffffffffffffffffffffffffffffffffffffffff1673ffffffffffffffffffffffffffffffffffffffff1681526020018373ffffffffffffffffffffffffffffffffffffffff1673ffffffffffffffffffffffffffffffffffffffff168152602001828152602001935050505060405180910390a15050565b60003490506108cb60046005610b38565b6108ec823373ffffffffffffffffffffffffffffffffffffffff1631610b38565b1115600460028154811015156108fe57fe5b906000526020600020019015156109cd576040517f08c379a000000000000000000000000000000000000000000000000000000000815260040180806020018281038252838181546001816001161561010002031660029004815260200191508054600181600116156101000203166002900480156109be5780601f10610993576101008083540402835291602001916109be565b820191906000526020600020905b8154815290600101906020018083116109a157829003601f168201915b50509250505060405180910390fd5b506003811115600460038154811015156109e357fe5b90600052602060002001901515610ab2576040517f08c379a00000000000000000000000000000000000000000000000000000000081526004018080602001828103825283818154600181600116156101000203166002900481526020019150805460018160011615610100020316600290048015610aa35780601f10610a7857610100808354040283529160200191610aa3565b820191906000526020600020905b815481529060010190602001808311610a8657829003601f168201915b50509250505060405180910390fd5b507f47170ad76c9bbdb15dfbafd993321119023982de922af38d00684afaac15b8ea303073ffffffffffffffffffffffffffffffffffffffff1631604051808373ffffffffffffffffffffffffffffffffffffffff1673ffffffffffffffffffffffffffffffffffffffff1681526020018281526020019250505060405180910390a150565b60008082111515610b4857600080fd5b60008284811515610b5557fe5b049050809150509291505056fea165627a7a7230582033e9e2c9a9ef6b670ddd0579b9a206f925cd7e54c47b05374ae6e0254775d2cd0029",
  "source": "pragma solidity ^0.5.0;\nimport \"./SafeMath.sol\";\n\n\ncontract AccessControl {\n    using SafeMath for uint256;\n\n    constructor() public { sba = msg.sender; }\n    address payable sba;\n    address payable[] borrowers;\n    uint counter_borrower=0;\n\n    mapping(string => uint) usernameMap;\n\n    event invest(address investor, uint fund);\n    event depositEvent(address contractAddress, uint contractBalance);\n    event addBorrower(address borrower, address storedAddr, uint index);\n    event borrowEvent(address borrower, uint fund);\n\n    string[] errMsg = [\n    \"Minimum of 5 Ether\",\n    \"Insufficient fund in contract for transfer\",\n    \"Should not be more than 80% of your available balance\",\n    \"Minimum Loan Amount of 3 Ether\"\n    ];\n\n    function add_borrower(string memory username) public {\n\n        uint tmpIndex;\n        if(usernameMap[username]>0) {\n            tmpIndex=usernameMap[username];\n        }else{\n            usernameMap[username] = counter_borrower;\n            tmpIndex = usernameMap[username];\n\n            counter_borrower ++;\n            borrowers.push(msg.sender);\n        }\n\n        emit addBorrower(msg.sender,borrowers[tmpIndex],tmpIndex);\n    }\n\n    function renderHelloWorld () public pure returns (string memory) {\n        return \"Hello World\";\n    }\n\n    function deposit() public payable {\n        uint amt = msg.value;\n        require(SafeMath.div(amt,address(msg.sender).balance) <= SafeMath.div(4,5),  errMsg[2]);\n        require(amt <= 3,  errMsg[3]);\n\n        emit depositEvent(address(this),address(this).balance);\n    }\n\n    function accept_fund(uint amt) public {\n        require(address(this).balance< amt,  errMsg[1]);\n\n        sba.transfer(amt);\n        emit invest(sba,amt);\n    }\n\n    function borrow(address payable borrowerAddress, uint amt) public {\n\n        emit borrowEvent(borrowerAddress,amt);\n\n        borrowerAddress.transfer(amt);\n        //emit invest(holder,amt);\n    }\n\n    function getBalance() public view returns(uint amt){\n        return address(this).balance;\n    }\n\n\n}",
  "sourcePath": "E:/MITB/Term 6- 2019/ISFS603 Corp. Banking and Blockchain/Project/SILS_INTELLIJ/sils_v02/contracts/contracts/SILS.sol",
  "compiler": {
    "name": "solc",
    "version": "0.5.1+commit.c8a2cb62.Emscripten.clang"
  },
  "schemaVersion": "3.0.11",
  "updatedAt": "2019-07-19T08:10:00.729Z",
  "devdoc": {
    "methods": {}
  },
  "userdoc": {
    "methods": {}
  }
}