{
  "contractName": "SILS",
  "abi": [
    {
      "inputs": [],
      "payable": false,
      "stateMutability": "nonpayable",
      "type": "constructor"
    },
    {
      "anonymous": false,
      "inputs": [
        {
          "indexed": false,
          "name": "investor",
          "type": "address"
        },
        {
          "indexed": false,
          "name": "fund",
          "type": "uint256"
        }
      ],
      "name": "invest",
      "type": "event"
    },
    {
      "anonymous": false,
      "inputs": [
        {
          "indexed": false,
          "name": "contractAddress",
          "type": "address"
        },
        {
          "indexed": false,
          "name": "contractBalance",
          "type": "uint256"
        }
      ],
      "name": "depositEvent",
      "type": "event"
    },
    {
      "anonymous": false,
      "inputs": [
        {
          "indexed": false,
          "name": "amt",
          "type": "uint256"
        },
        {
          "indexed": false,
          "name": "balance",
          "type": "uint256"
        },
        {
          "indexed": false,
          "name": "borrowRatio",
          "type": "uint256"
        },
        {
          "indexed": false,
          "name": "requiredRatio",
          "type": "uint256"
        }
      ],
      "name": "depositRule",
      "type": "event"
    },
    {
      "anonymous": false,
      "inputs": [
        {
          "indexed": false,
          "name": "borrower",
          "type": "address"
        },
        {
          "indexed": false,
          "name": "storedAddr",
          "type": "address"
        },
        {
          "indexed": false,
          "name": "index",
          "type": "uint256"
        }
      ],
      "name": "addBorrower",
      "type": "event"
    },
    {
      "anonymous": false,
      "inputs": [
        {
          "indexed": false,
          "name": "borrower",
          "type": "address"
        },
        {
          "indexed": false,
          "name": "fund",
          "type": "uint256"
        }
      ],
      "name": "borrowEvent",
      "type": "event"
    },
    {
      "anonymous": false,
      "inputs": [
        {
          "indexed": false,
          "name": "errormsg",
          "type": "string"
        }
      ],
      "name": "logError",
      "type": "event"
    },
    {
      "anonymous": false,
      "inputs": [
        {
          "indexed": false,
          "name": "amt",
          "type": "uint256"
        },
        {
          "indexed": false,
          "name": "balance",
          "type": "uint256"
        },
        {
          "indexed": false,
          "name": "borrowRatio",
          "type": "uint256"
        },
        {
          "indexed": false,
          "name": "requiredRatio",
          "type": "uint256"
        }
      ],
      "name": "checkDepositEvent",
      "type": "event"
    },
    {
      "constant": true,
      "inputs": [],
      "name": "renderHelloWorld",
      "outputs": [
        {
          "name": "",
          "type": "string"
        }
      ],
      "payable": false,
      "stateMutability": "pure",
      "type": "function"
    },
    {
      "constant": false,
      "inputs": [
        {
          "name": "amt",
          "type": "uint256"
        }
      ],
      "name": "deposit_fund",
      "outputs": [],
      "payable": false,
      "stateMutability": "nonpayable",
      "type": "function"
    },
    {
      "constant": true,
      "inputs": [
        {
          "name": "sender",
          "type": "address"
        },
        {
          "name": "amt",
          "type": "uint256"
        }
      ],
      "name": "check_deposit",
      "outputs": [
        {
          "name": "",
          "type": "string"
        }
      ],
      "payable": false,
      "stateMutability": "view",
      "type": "function"
    },
    {
      "constant": false,
      "inputs": [
        {
          "name": "lender",
          "type": "address"
        },
        {
          "name": "amt",
          "type": "uint256"
        }
      ],
      "name": "deposit",
      "outputs": [],
      "payable": false,
      "stateMutability": "nonpayable",
      "type": "function"
    },
    {
      "constant": false,
      "inputs": [],
      "name": "deposit_payable",
      "outputs": [],
      "payable": true,
      "stateMutability": "payable",
      "type": "function"
    },
    {
      "constant": false,
      "inputs": [
        {
          "name": "borrowerAddress",
          "type": "address"
        },
        {
          "name": "amt",
          "type": "uint256"
        }
      ],
      "name": "borrow",
      "outputs": [],
      "payable": false,
      "stateMutability": "nonpayable",
      "type": "function"
    },
    {
      "constant": true,
      "inputs": [],
      "name": "getBalance",
      "outputs": [
        {
          "name": "amt",
          "type": "uint256"
        }
      ],
      "payable": false,
      "stateMutability": "view",
      "type": "function"
    }
  ],
  "bytecode": "0x608060405260006002556080604051908101604052806040805190810160405280601281526020017f4d696e696d756d206f66203520457468657200000000000000000000000000008152508152602001606060405190810160405280602a81526020017f496e73756666696369656e742066756e6420696e20636f6e747261637420666f81526020017f72207472616e73666572000000000000000000000000000000000000000000008152508152602001606060405190810160405280603581526020017f53686f756c64206e6f74206265206d6f7265207468616e20383025206f66207981526020017f6f757220617661696c61626c652062616c616e6365000000000000000000000081525081526020016040805190810160405280601e81526020017f4d696e696d756d204c6f616e20416d6f756e74206f662033204574686572000081525081525060049060046200015f929190620001b4565b503480156200016d57600080fd5b50336000806101000a81548173ffffffffffffffffffffffffffffffffffffffff021916908373ffffffffffffffffffffffffffffffffffffffff16021790555062000347565b82805482825590600052602060002090810192821562000208579160200282015b8281111562000207578251829080519060200190620001f69291906200021b565b5091602001919060010190620001d5565b5b509050620002179190620002a2565b5090565b828054600181600116156101000203166002900490600052602060002090601f016020900481019282601f106200025e57805160ff19168380011785556200028f565b828001600101855582156200028f579182015b828111156200028e57825182559160200191906001019062000271565b5b5090506200029e9190620002d3565b5090565b620002d091905b80821115620002cc5760008181620002c29190620002fb565b50600101620002a9565b5090565b90565b620002f891905b80821115620002f4576000816000905550600101620002da565b5090565b90565b50805460018160011615610100020316600290046000825580601f1062000323575062000344565b601f016020900490600052602060002090810190620003439190620002d3565b5b50565b610e9e80620003576000396000f3fe60806040526004361061007d576000357c01000000000000000000000000000000000000000000000000000000009004806312065fe01461008257806347e7ef24146100ad5780634b8a352914610108578063942ae0a714610163578063acfaf515146101f3578063e7a124871461022e578063fec5a7f414610302575b600080fd5b34801561008e57600080fd5b5061009761030c565b6040518082815260200191505060405180910390f35b3480156100b957600080fd5b50610106600480360360408110156100d057600080fd5b81019080803573ffffffffffffffffffffffffffffffffffffffff1690602001909291908035906020019092919050505061032b565b005b34801561011457600080fd5b506101616004803603604081101561012b57600080fd5b81019080803573ffffffffffffffffffffffffffffffffffffffff169060200190929190803590602001909291905050506105ac565b005b34801561016f57600080fd5b50610178610662565b6040518080602001828103825283818151815260200191508051906020019080838360005b838110156101b857808201518184015260208101905061019d565b50505050905090810190601f1680156101e55780820380516001836020036101000a031916815260200191505b509250505060405180910390f35b3480156101ff57600080fd5b5061022c6004803603602081101561021657600080fd5b810190808035906020019092919050505061069f565b005b34801561023a57600080fd5b506102876004803603604081101561025157600080fd5b81019080803573ffffffffffffffffffffffffffffffffffffffff169060200190929190803590602001909291905050506108f9565b6040518080602001828103825283818151815260200191508051906020019080838360005b838110156102c75780820151818401526020810190506102ac565b50505050905090810190601f1680156102f45780820380516001836020036101000a031916815260200191505b509250505060405180910390f35b61030a610afa565b005b60003073ffffffffffffffffffffffffffffffffffffffff1631905090565b60006103596103523373ffffffffffffffffffffffffffffffffffffffff16316005610de9565b6004610e13565b9050808210151561043c576004600281548110151561037457fe5b906000526020600020016040517f08c379a0000000000000000000000000000000000000000000000000000000008152600401808060200182810382528381815460018160011615610100020316600290048152602001915080546001816001161561010002031660029004801561042d5780601f106104025761010080835404028352916020019161042d565b820191906000526020600020905b81548152906001019060200180831161041057829003601f168201915b50509250505060405180910390fd5b6729a2241af62c000082111515610525576004600381548110151561045d57fe5b906000526020600020016040517f08c379a000000000000000000000000000000000000000000000000000000000815260040180806020018281038252838181546001816001161561010002031660029004815260200191508054600181600116156101000203166002900480156105165780601f106104eb57610100808354040283529160200191610516565b820191906000526020600020905b8154815290600101906020018083116104f957829003601f168201915b50509250505060405180910390fd5b7f47170ad76c9bbdb15dfbafd993321119023982de922af38d00684afaac15b8ea303073ffffffffffffffffffffffffffffffffffffffff1631604051808373ffffffffffffffffffffffffffffffffffffffff1673ffffffffffffffffffffffffffffffffffffffff1681526020018281526020019250505060405180910390a1505050565b7fceff913edf9c5daf140e6ecfaddfd63e1495464b8ff03c970af0fbc9386f49a88282604051808373ffffffffffffffffffffffffffffffffffffffff1673ffffffffffffffffffffffffffffffffffffffff1681526020018281526020019250505060405180910390a18173ffffffffffffffffffffffffffffffffffffffff166108fc829081150290604051600060405180830381858888f1935050505015801561065d573d6000803e3d6000fd5b505050565b60606040805190810160405280600b81526020017f48656c6c6f20576f726c64000000000000000000000000000000000000000000815250905090565b60006106cd6106c63373ffffffffffffffffffffffffffffffffffffffff16316005610de9565b6004610e13565b90507f3764be202316e304ef1c5e5c5e15f994946d253c608f33425b72147d3df41ce9823373ffffffffffffffffffffffffffffffffffffffff163183856040518085815260200184815260200183815260200182815260200194505050505060405180910390a18181111515610811577f442017ccb3d1333bc68d692671d0492cf8542c3cd6391b37b873704b869b35ba6004600281548110151561076f57fe5b9060005260206000200160405180806020018281038252838181546001816001161561010002031660029004815260200191508054600181600116156101000203166002900480156108025780601f106107d757610100808354040283529160200191610802565b820191906000526020600020905b8154815290600101906020018083116107e557829003601f168201915b50509250505060405180910390a15b6729a2241af62c0000821115156108f5577f442017ccb3d1333bc68d692671d0492cf8542c3cd6391b37b873704b869b35ba6004600381548110151561085357fe5b9060005260206000200160405180806020018281038252838181546001816001161561010002031660029004815260200191508054600181600116156101000203166002900480156108e65780601f106108bb576101008083540402835291602001916108e6565b820191906000526020600020905b8154815290600101906020018083116108c957829003601f168201915b50509250505060405180910390a15b5050565b606060006109296109228573ffffffffffffffffffffffffffffffffffffffff16316005610de9565b6004610e13565b905080831015156109ef576004600281548110151561094457fe5b906000526020600020018054600181600116156101000203166002900480601f0160208091040260200160405190810160405280929190818152602001828054600181600116156101000203166002900480156109e25780601f106109b7576101008083540402835291602001916109e2565b820191906000526020600020905b8154815290600101906020018083116109c557829003601f168201915b5050505050915050610af4565b6729a2241af62c0000831015610aba5760046003815481101515610a0f57fe5b906000526020600020018054600181600116156101000203166002900480601f016020809104026020016040519081016040528092919081815260200182805460018160011615610100020316600290048015610aad5780601f10610a8257610100808354040283529160200191610aad565b820191906000526020600020905b815481529060010190602001808311610a9057829003601f168201915b5050505050915050610af4565b6040805190810160405280601481526020017f4c6f616e20416d6f756e7420417070726f7665640000000000000000000000008152509150505b92915050565b34610b30610b29610b223373ffffffffffffffffffffffffffffffffffffffff163134610e51565b6005610de9565b6004610e13565b1160046002815481101515610b4157fe5b90600052602060002001901515610c10576040517f08c379a00000000000000000000000000000000000000000000000000000000081526004018080602001828103825283818154600181600116156101000203166002900481526020019150805460018160011615610100020316600290048015610c015780601f10610bd657610100808354040283529160200191610c01565b820191906000526020600020905b815481529060010190602001808311610be457829003601f168201915b50509250505060405180910390fd5b506729a2241af62c000034101560046003815481101515610c2d57fe5b90600052602060002001901515610cfc576040517f08c379a00000000000000000000000000000000000000000000000000000000081526004018080602001828103825283818154600181600116156101000203166002900481526020019150805460018160011615610100020316600290048015610ced5780601f10610cc257610100808354040283529160200191610ced565b820191906000526020600020905b815481529060010190602001808311610cd057829003601f168201915b50509250505060405180910390fd5b506000809054906101000a900473ffffffffffffffffffffffffffffffffffffffff1673ffffffffffffffffffffffffffffffffffffffff166108fc349081150290604051600060405180830381858888f19350505050158015610d64573d6000803e3d6000fd5b507f47170ad76c9bbdb15dfbafd993321119023982de922af38d00684afaac15b8ea303073ffffffffffffffffffffffffffffffffffffffff1631604051808373ffffffffffffffffffffffffffffffffffffffff1673ffffffffffffffffffffffffffffffffffffffff1681526020018281526020019250505060405180910390a1565b60008082111515610df957600080fd5b60008284811515610e0657fe5b0490508091505092915050565b600080831415610e265760009050610e4b565b60008284029050828482811515610e3957fe5b04141515610e4657600080fd5b809150505b92915050565b6000808284019050838110151515610e6857600080fd5b809150509291505056fea165627a7a7230582064fe9be80bf27d07a7c9fd9040ac0374351d698739c44b1803cdf642f404e0dd0029",
  "source": "pragma solidity ^0.5.0;\nimport \"./SafeMath.sol\";\n\n\ncontract SILS {\n    using SafeMath for uint256;\n\n    constructor() public { sba = msg.sender; }\n    address payable sba;\n    address payable[] borrowers;\n    uint counter_borrower=0;\n    uint256 constant minAmt = 3000000000000000000;\n\n    mapping(string => uint) usernameMap;\n\n    event invest(address investor, uint fund);\n    event depositEvent(address contractAddress, uint contractBalance);\n    event depositRule(uint256 amt, uint256 balance,uint256 borrowRatio, uint256 requiredRatio);\n    event addBorrower(address borrower, address storedAddr, uint index);\n    event borrowEvent(address borrower, uint fund);\n    event logError(string errormsg);\n    event checkDepositEvent(uint256 amt, uint256 balance,uint256 borrowRatio, uint256 requiredRatio);\n\n    string[] errMsg = [\n    \"Minimum of 5 Ether\",\n    \"Insufficient fund in contract for transfer\",\n    \"Should not be more than 80% of your available balance\",\n    \"Minimum Loan Amount of 3 Ether\"\n    ];\n\n    //ignore this function, for testing purposes only\n    function renderHelloWorld () public pure returns (string memory) {\n        return \"Hello World\";\n    }\n\n    //ignore this function, for testing purposes only\n    function deposit_fund(uint256 amt) public {\n\n        uint256 minBalance = SafeMath.mul(SafeMath.div(msg.sender.balance,uint256(5)),uint256(4));\n\n        emit depositRule(amt,msg.sender.balance,minBalance,amt);\n\n        if (minBalance <= amt){\n            emit logError(errMsg[2]);\n        }\n        if (amt <= minAmt){\n            emit logError(errMsg[3]);\n        }\n        //emit depositRule(SafeMath.mul(SafeMath.div(amt,msg.sender.balance),10), SafeMath.mul(SafeMath.div(4,5),10));\n\n    }\n\n    //the same validation is applied to deposit_payable function\n    function check_deposit(address payable sender, uint256 amt) public view returns (string memory){\n        //uint256 minBalance = SafeMath.mul(SafeMath.div(msg.sender.balance,uint256(5)),uint256(4));\n        //uint256 minBalance= msg.sender.balance;\n        uint256 minBalance = SafeMath.mul(SafeMath.div(sender.balance,uint256(5)),uint256(4));\n        if (amt >= minBalance){\n            return errMsg[2];\n        }\n        else if (amt < minAmt){\n            return errMsg[3];\n        }\n        //uint256 minBalance= sender.balance;\n        return \"Loan Amount Approved\";\n\n    }\n\n    //ignore this function, for testing purposes only\n    function deposit(address payable lender, uint256 amt) public  {\n\n        //require(SafeMath.mul(SafeMath.div(msg.sender.balance,uint256(5)),uint256(4))> msg.value,  errMsg[2]);\n        //require(msg.value> minAmt, errMsg[3]);\n        uint256 minBalance = SafeMath.mul(SafeMath.div(msg.sender.balance,uint256(5)),uint256(4));\n        //emit checkDepositEvent(msg.value,msg.sender.balance,minBalance,msg.value);\n\n        if (amt >= minBalance){\n            revert(errMsg[2]);\n        }else if (amt <= minAmt){\n            revert(errMsg[3]);\n        }\n\n        emit depositEvent(address(this),address(this).balance);\n    }\n\n    function deposit_payable() public payable {\n\n        //for payable function, the require validation takes effect after amount is offset from the sender account,\n        //therefore the require validation has to add (SafeMath.add) the offset balance + amount sent\n        require(SafeMath.mul(SafeMath.div(SafeMath.add(msg.sender.balance,msg.value),uint256(5)),uint256(4))> msg.value,  errMsg[2]);\n        require(msg.value>= minAmt, errMsg[3]);\n\n        sba.transfer(msg.value);\n\n        emit depositEvent(address(this),address(this).balance);\n    }\n\n\n    function borrow(address payable borrowerAddress, uint amt) public {\n\n        emit borrowEvent(borrowerAddress,amt);\n\n        borrowerAddress.transfer(amt);\n        //emit invest(holder,amt);\n    }\n\n    function getBalance() public view returns(uint amt){\n        return address(this).balance;\n    }\n\n\n}",
  "sourcePath": "E:/MITB/Term 6- 2019/ISFS603 Corp. Banking and Blockchain/Project/SILS_INTELLIJ/sils_v02/contracts/contracts/SILS.sol",
  "compiler": {
    "name": "solc",
    "version": "0.5.1+commit.c8a2cb62.Emscripten.clang"
  },
  "schemaVersion": "3.0.11",
  "updatedAt": "2019-07-20T11:28:43.748Z",
  "devdoc": {
    "methods": {}
  },
  "userdoc": {
    "methods": {}
  }
}